:020000022000DC
:10700000402F0020B9970200A1130300A5970200AA
:10701000A5970200A5970200A597020000000000B6
:10702000000000000000000000000000F1970200D6
:10703000A597020000000000F1990200A597020048
:10704000699A0200699A0200699A0200699A02002C
:10705000699A0200699A0200699A0200699A02001C
:10706000699A0200699A0200699A0200699A02000C
:10707000699A0200699A0200699A0200699A0200FC
:10708000699A0200699A0200699A0200699A0200EC
:10709000699A0200699A0200699A0200699A0200DC
:1070A000699A0200699A0200699A0200699A0200CC
:1070B000699A0200699A0200699A0200699A0200BC
:1070C000699A0200699A0200699A0200699A0200AC
:1070D000699A0200699A0200699A0200699A02009C
:1070E000699A0200699A0200699A0200699A02008C
:1070F000699A0200699A0200699A0200699A02007C
:1071000081F0004102E000BF83F0004330B54FEA58
:1071100041044FEA430594EA050F08BF90EA020FC5
:107120001FBF54EA000C55EA020C7FEA645C7FEA58
:10713000655C00F0E2804FEA5454D4EB5555B8BF7B
:107140006D420CDD2C4480EA020281EA030382EAEC
:10715000000083EA010180EA020281EA0303362D7E
:1071600088BF30BD11F0004F4FEA01314FF4801C51
:107170004CEA113102D0404261EB410113F0004F63
:107180004FEA03334CEA133302D0524263EB43031A
:1071900094EA050F00F0A780A4F10104D5F1200EB8
:1071A0000DDB02FA0EFC22FA05F2801841F1000113
:1071B00003FA0EF2801843FA05F359410EE0A5F1E7
:1071C00020050EF1200E012A03FA0EFC28BF4CF018
:1071D000020C43FA05F3C01851EBE37101F00045CE
:1071E00007D54FF0000EDCF1000C7EEB00006EEBDB
:1071F0000101B1F5801F1BD3B1F5001F0CD3490865
:107200005FEA30004FEA3C0C04F101044FEA4452BB
:1072100012F5800F80F09A80BCF1004F08BF5FEA42
:10722000500C50F1000041EB045141EA050130BD22
:107230005FEA4C0C404141EB0101013C28BFB1F534
:10724000801FE9D291F0000F04BF01460020B1FA7F
:1072500081F308BF2033A3F10B03B3F120020CDA52
:107260000C3208DD02F1140CC2F10C0201FA0CF030
:1072700021FA02F10CE002F11402D8BFC2F1200C95
:1072800001FA02F120FA0CFCDCBF41EA0C0190404B
:10729000E41AA2BF01EB0451294330BD6FEA040494
:1072A0001F3C1CDA0C340EDC04F11404C4F120027F
:1072B00020FA04F001FA02F340EA030021FA04F391
:1072C00045EA030130BDC4F10C04C4F1200220FAE8
:1072D00002F001FA04F340EA0300294630BD21FA26
:1072E00004F0294630BD94F0000F83F4801306BFEC
:1072F00081F480110134013D4EE77FEA645C18BFE0
:107300007FEA655C29D094EA050F08BF90EA020F76
:1073100005D054EA000C04BF1946104630BD91EA6E
:10732000030F1EBF0021002030BD5FEA545C05D171
:107330004000494128BF41F0004130BD14F58004B0
:107340003CBF01F5801130BD01F0004545F0FE4124
:1073500041F470014FF0000030BD7FEA645C1ABF59
:10736000194610467FEA655C1CBF0B46024650EA90
:10737000013406BF52EA033591EA030F41F40021BC
:1073800030BD00BF90F0000F04BF0021704730B542
:107390004FF4806404F132044FF000054FF0000117
:1073A00050E700BF90F0000F04BF0021704730B5D8
:1073B0004FF4806404F1320410F0004548BF4042AD
:1073C0004FF000013EE700BF42004FEAE2014FEA02
:1073D00031014FEA02701FBF12F07F4393F07F4FDD
:1073E00081F06051704732F07F4208BF704793F0E0
:1073F0007F4F04BF41F40021704730B54FF46074F3
:1074000001F0004521F000411CE700BF50EA0102F5
:1074100008BF704730B54FF000050AE050EA01029E
:1074200008BF704730B511F0004502D5404261EB0E
:1074300041014FF4806404F132045FEA915C3FF44F
:10744000D8AE4FF003025FEADC0C18BF03325FEAEC
:10745000DC0C18BF033202EBDC02C2F1200300FA9D
:1074600003FC20FA02F001FA03FE40EA0E0021FAC2
:1074700002F11444BDE600BF70B54FF0FF0C4CF4B0
:10748000E06C1CEA11541DBF1CEA135594EA0C0F62
:1074900095EA0C0F00F0DEF82C4481EA030621EA9D
:1074A0004C5123EA4C5350EA013518BF52EA0335D8
:1074B00041F4801143F4801338D0A0FB02CE4FF08A
:1074C0000005E1FB02E506F00042E0FB03E54FF0BA
:1074D0000006E1FB03569CF0000F18BF4EF0010EB2
:1074E000A4F1FF04B6F5007F64F5407404D25FEAAE
:1074F0004E0E6D4146EB060642EAC62141EA555161
:107500004FEAC52040EA5E504FEACE2EB4F1FD0CA2
:1075100088BFBCF5E06F1ED8BEF1004F08BF5FEA20
:10752000500E50F1000041EB045170BD06F00046D2
:1075300046EA010140EA020081EA0301B4EB5C047F
:10754000C2BFD4EB0C0541EA045170BD41F4801177
:107550004FF0000E013C00F3AB8014F1360FDEBF9C
:10756000002001F0004170BDC4F10004203C35DA78
:107570000C341BDC04F11404C4F1200500FA05F3FB
:1075800020FA04F001FA05F240EA020001F000429C
:1075900021F0004110EBD37021FA04F642EB060112
:1075A0005EEA430E08BF20EAD37070BDC4F10C043C
:1075B000C4F1200500FA04F320FA05F001FA04F200
:1075C00040EA020001F0004110EBD37041F10001EC
:1075D0005EEA430E08BF20EAD37070BDC4F12005F7
:1075E00000FA05F24EEA020E20FA04F301FA05F25F
:1075F00043EA020321FA04F001F0004121FA04F207
:1076000020EA020000EBD3705EEA430E08BF20EAD6
:10761000D37070BD94F0000F0FD101F00046400010
:1076200041EB010111F4801F08BF013CF7D041EA92
:10763000060195F0000F18BF704703F00046520096
:1076400043EB030313F4801F08BF013DF7D043EA67
:107650000603704794EA0C0F0CEA135518BF95EA1D
:107660000C0F0CD050EA410618BF52EA4306D1D1A4
:1076700081EA030101F000414FF0000070BD50EAC3
:10768000410606BF1046194652EA430619D094EA4D
:107690000C0F02D150EA013613D195EA0C0F05D137
:1076A00052EA03361CBF104619460AD181EA03018B
:1076B00001F0004141F0FE4141F470014FF0000043
:1076C00070BD41F0FE4141F4780170BD70B54FF0DE
:1076D000FF0C4CF4E06C1CEA11541DBF1CEA13555E
:1076E00094EA0C0F95EA0C0F00F0A7F8A4EB050440
:1076F00081EA030E52EA03354FEA013100F0888037
:107700004FEA03334FF0805545EA131343EA1263FF
:107710004FEA022245EA111545EA10654FEA0026B4
:107720000EF000419D4208BF964244F1FD0404F56D
:10773000407402D25B084FEA3202B61A65EB0305C9
:107740005B084FEA32024FF480104FF4002CB6EB86
:10775000020E75EB030E22BFB61A754640EA0C0006
:107760005B084FEA3202B6EB020E75EB030E22BF46
:10777000B61A754640EA5C005B084FEA3202B6EB87
:10778000020E75EB030E22BFB61A754640EA9C0046
:107790005B084FEA3202B6EB020E75EB030E22BF16
:1077A000B61A754640EADC0055EA060E18D04FEAD4
:1077B000051545EA16754FEA06164FEAC30343EA74
:1077C00052734FEAC2025FEA1C1CC0D111F4801F41
:1077D0000BD141EA00014FF000004FF0004CB6E73A
:1077E00011F4801F04BF01430020B4F1FD0C88BFD9
:1077F000BCF5E06F3FF6AFAEB5EB030C04BFB6EBE4
:10780000020C5FEA500C50F1000041EB045170BDD6
:107810000EF0004E4EEA113114EB5C04C2BFD4EB03
:107820000C0541EA045170BD41F480114FF0000E87
:10783000013C90E645EA060E8DE60CEA135594EA03
:107840000C0F08BF95EA0C0F3FF43BAF94EA0C0F06
:107850000AD150EA01347FF434AF95EA0C0F7FF47B
:1078600025AF104619462CE795EA0C0F06D152EACF
:1078700003353FF4FDAE1046194622E750EA4106B3
:1078800018BF52EA43067FF4C5AE50EA41047FF4C4
:107890000DAF52EA43057FF4EBAE12E74A0011D276
:1078A00012F5001211D20DD56FF47873B3EB62525A
:1078B0000ED44FEAC12343F0004343EA505323FA66
:1078C00002F070474FF00000704750EA013002D1DB
:1078D0004FF0FF3070474FF0000070474FEA410211
:1078E000B2F1E04324BFB3F5001CDCF1FE5C0DD91E
:1078F00001F0004C4FEAC0024CEA5070B2F1004F68
:1079000040EB830008BF20F00100704711F0804F6A
:1079100021D113F13872BCBF01F00040704741F42F
:1079200080114FEA5252C2F11802C2F1200C10FA33
:107930000CF320FA02F018BF40F001004FEAC12317
:107940004FEAD32303FA0CFC40EA0C0023FA02F3BB
:107950004FEA4303CCE77FEA625307D150EA013391
:107960001EBF4FF0FE4040F44000704701F0004061
:1079700040F0FE4040F40000704700BF80F000403F
:1079800002E000BF81F0004142001FBF5FEA4103F7
:1079900092EA030F7FEA226C7FEA236C6AD04FEAF7
:1079A0001262D2EB1363C1BFD2184140484041403C
:1079B000B8BF5B42192B88BF704710F0004F40F4EE
:1079C000000020F07F4018BF404211F0004F41F40A
:1079D000000121F07F4118BF494292EA030F3FD0D6
:1079E000A2F1010241FA03FC10EB0C00C3F12003E9
:1079F00001FA03F100F0004302D5494260EB400078
:107A0000B0F5000F13D3B0F1807F06D340084FEAE2
:107A1000310102F10102FE2A51D2B1F1004F40EBD7
:107A2000C25008BF20F0010040EA0300704749003F
:107A300040EB0000013A28BFB0F5000FEDD2B0FADC
:107A400080FCACF1080CB2EB0C0200FA0CF0AABFFF
:107A500000EBC25052421843BCBFD040184370479D
:107A600092F0000F81F4000106BF80F400000132A3
:107A7000013BB5E74FEA41037FEA226C18BF7FEA7A
:107A8000236C21D092EA030F04D092F0000F08BFBC
:107A90000846704790EA010F1CBF0020704712F0A3
:107AA0007F4F04D1400028BF40F00040704712F1E2
:107AB00000723CBF00F50000704700F0004343F047
:107AC000FE4040F4000070477FEA226216BF08467D
:107AD0007FEA23630146420206BF5FEA412390EA40
:107AE000010F40F4800070474FF0000304E000BF36
:107AF00010F0004348BF40425FEA000C08BF7047E7
:107B000043F0964301464FF000001CE050EA0102AA
:107B100008BF70474FF000030AE000BF50EA0102BF
:107B200008BF704711F0004302D5404261EB4101AC
:107B30005FEA010C02BF84460146002043F0B643D1
:107B400008BFA3F18053A3F50003BCFA8CF2083AF6
:107B5000A3EBC25310DB01FA02FC634400FA02FCFF
:107B6000C2F12002BCF1004F20FA02F243EB020006
:107B700008BF20F00100704702F1200201FA02FC68
:107B8000C2F1200250EA4C0021FA02F243EB02005B
:107B900008BF20EADC7070474FF0FF0C1CEAD0529F
:107BA0001EBF1CEAD15392EA0C0F93EA0C0F6FD060
:107BB0001A4480EA010C400218BF5FEA41211ED03E
:107BC0004FF0006343EA501043EA5111A0FB01312A
:107BD0000CF00040B1F5000F3EBF490041EAD371FF
:107BE0005B0040EA010062F17F02FD2A1DD8B3F17B
:107BF000004F40EBC25008BF20F00100704790F0EA
:107C0000000F0CF0004C08BF49024CEA502040EA3B
:107C100051207F3AC2BFD2F1FF0340EAC250704701
:107C200040F400004FF00003013A5DDC12F1190F3F
:107C3000DCBF00F000407047C2F10002410021FAB1
:107C400002F1C2F1200200FA02FC5FEA310040F1C9
:107C5000000053EA4C0308BF20EADC70704792F042
:107C6000000F00F0004C02BF400010F4000F013A7A
:107C7000F9D040EA0C0093F0000F01F0004C02BF75
:107C8000490011F4000F013BF9D041EA0C018FE7E4
:107C90000CEAD15392EA0C0F18BF93EA0C0F0AD0EA
:107CA00030F0004C18BF31F0004CD8D180EA010010
:107CB00000F00040704790F0000F17BF90F0004FA9
:107CC000084691F0000F91F0004F14D092EA0C0F8B
:107CD00001D142020FD193EA0C0F03D14B0218BF1E
:107CE000084608D180EA010000F0004040F0FE4064
:107CF00040F40000704740F0FE4040F44000704700
:107D00004FF0FF0C1CEAD0521EBF1CEAD15392EA7E
:107D10000C0F93EA0C0F69D0A2EB030280EA010C6E
:107D200049024FEA402037D04FF0805343EA111107
:107D300043EA10130CF000408B4238BF5B0042F165
:107D40007D024FF4000C8B4224BF5B1A40EA0C000A
:107D5000B3EB510F24BFA3EB510340EA5C00B3EB3C
:107D6000910F24BFA3EB910340EA9C00B3EBD10F2A
:107D700024BFA3EBD10340EADC001B0118BF5FEA7C
:107D80001C1CE0D1FD2A3FF650AF8B4240EBC250A5
:107D900008BF20F0010070470CF0004C4CEA502066
:107DA0007F32C2BFD2F1FF0340EAC250704740F4B5
:107DB00000004FF00003013A37E792F0000F00F0A7
:107DC000004C02BF400010F4000F013AF9D040EA25
:107DD0000C0093F0000F01F0004C02BF490011F4B9
:107DE000000F013BF9D041EA0C0195E70CEAD153B1
:107DF00092EA0C0F08D142027FF47DAF93EA0C0F98
:107E00007FF470AF084676E793EA0C0F04D14B027B
:107E10003FF44CAF08466EE730F0004C18BF31F02D
:107E2000004CCAD130F000427FF45CAF31F0004327
:107E30007FF43CAF5FE700BF4FF0FF3C06E000BFC0
:107E40004FF0010C02E000BF4FF0010C4DF804CDE3
:107E50004FEA40024FEA41037FEA226C18BF7FEAF3
:107E6000236C11D001B052EA530C18BF90EA010FF5
:107E700058BFB2EB030088BFC81738BF6FEAE17084
:107E800018BF40F0010070477FEA226C02D15FEA20
:107E9000402C05D17FEA236CE4D15FEA412CE1D08C
:107EA0005DF8040B704700BF844608466146FFE753
:107EB0000FB5FFF7C9FF002848BF10F1000F0FBD35
:107EC0004DF808EDFFF7F4FF0CBF012000205DF82E
:107ED00008FB00BF4DF808EDFFF7EAFF34BF0120B3
:107EE00000205DF808FB00BF4DF808EDFFF7E0FF4C
:107EF00094BF012000205DF808FB00BF4DF808ED9D
:107F0000FFF7D2FF94BF012000205DF808FB00BFFF
:107F10004DF808EDFFF7C8FF34BF012000205DF8E1
:107F200008FB00BF42000ED2B2F1FE4F0BD34FF060
:107F30009E03B3EB126209D44FEA002343F00043DF
:107F400023FA02F070474FF00000704712F1610F02
:107F500001D1420202D14FF0FF3070474FF00000D4
:107F6000704700BF7BB972B90029BEBF00204FF037
:107F7000004106E008BF00281CBF6FF000414FF031
:107F8000FF3000F077B8ADF1080C6DE904CE0029A0
:107F900009DB002B1ADB00F08CF8DDF804E0DDE9EA
:107FA000022304B07047404261EB4101002B1BDB10
:107FB00000F07FF8DDF804E0DDE9022304B0404280
:107FC00061EB4101524263EB43037047524263EB62
:107FD000430300F06EF8DDF804E0DDE9022304B0AD
:107FE000404261EB41017047524263EB430300F0B2
:107FF00060F8DDF804E0DDE9022304B0524263EBEF
:108000004303704753B94AB9002908BF00281CBF71
:108010004FF0FF314FF0FF3000F02CB8ADF1080CFD
:108020006DE904CE00F045F8DDF804E0DDE9022357
:1080300004B07047D0B5FFF7C7F90C4B00220646D5
:108040000F46FFF719FAFFF729FC0446FFF79AF9E4
:10805000074B0022FFF710FA02460B46304639461E
:10806000FFF752F8FFF71AFC2146D0BD0000F03DA3
:108070000000F041704700BF10F8012B11F8013BE0
:10808000012A28BF9A42F7D0D01A704710B50021B4
:108090000446FFF71FFF20B92046BDE81040FFF758
:1080A000C9BF04F10040FFF7C5FF404261EB410149
:1080B00010BD2DE9F0478C468E46089E15460446B5
:1080C0001946002B40F0D080724547D9B2FA82F7AA
:1080D0004FB1C7F120030EFA07FC20FA03F3BD40AD
:1080E00043EA0C0CBC404FEA154EA8B2BCFBFEF8AC
:1080F000230C0EFB18CC08FB00F943EA0C4399450E
:1081000028D9EB1808F1FF3204D2994502D9A8F119
:1081100002022B44A3EB0903A4B2B3FBFEFC0EFB4B
:108120001C330CFB00F044EA0344A04214D92C1980
:108130000CF1FF3304D2A04202D9ACF102032C446B
:10814000241A43EA02401EB1FC40002334607360ED
:10815000BDE8F0874246DDE76346F1E7002A79D0C3
:10816000B2FA82F3002B3FD01946C1F1200302FA84
:1081700001F52EFA03F20EFA01FE20FA03F343EAA8
:108180000E034FEA154E00FA01F4B2FBFEFCAFB24B
:108190000EFB1C201A0C0CFB07F842EA004290452B
:1081A0005AD9AA180CF1FF3004D2904502D9ACF18B
:1081B00002002A44A2EB08029BB2B2FBFEFC0EFBBB
:1081C0001C220CFB07F743EA02439F4246D9EB18F7
:1081D0000CF1FF3204D29F4202D9ACF102022B44CF
:1081E000DB1B42EA004202E0AEEB020301224FEA4F
:1081F000154EAFB2B3FBFEFC200C0EFB1C330CFB88
:1082000007F840EA034398452AD9EB180CF1FF30F0
:1082100004D2984502D9ACF102002B44A3EB080329
:10822000A4B2B3FBFEFC0EFB1C330CFB07F744EAC5
:108230000344A74216D92C190CF1FF3304D2A742EC
:1082400002D9ACF102032C44E41B43EA00400F4680
:10825000114678E71F2188E76046ABE76246BFE733
:108260006046DBE76346EFE7734506D916B90021A0
:1082700008466DE7C6E9000EF9E7B3FA83F787B958
:10828000734501D3824207D8841A6EEB03030120A1
:108290009C461EB900215BE73846FAE7C6E9004C68
:1082A000F8E7C7F1200CBB4022FA0CF51D4320FA79
:1082B0000CF12EFA0CF30EFA07FE41EA0E014FEA1A
:1082C000154900FA07F4B3FBF9F81FFA85FE09FB1C
:1082D00018300B0C08FB0EFA43EA00439A4502FAE9
:1082E00007F240D9EB1808F1FF3004D29A4502D9C1
:1082F000A8F102002B44A3EB0A0389B2B3FBF9F8FF
:1083000009FB183308FB0EFE41EA03418E452CD9C8
:10831000691808F1FF3304D28E4502D9A8F102038F
:10832000294443EA0040A0FB0298A1EB0E0141451D
:10833000CE46434602D306D14C4504D2B9EB020ED9
:1083400068EB05030138002EA4D0B4EB0E0261EBFC
:10835000030101FA0CFC22FA07F34CEA0303F9408B
:10836000C6E9003196E74046C5E74346D9E7000035
:10837000D0B5494CB4F90A00FFF714F800224FF0C9
:108380007C53FFF779F83CA3D3E90023FFF774F897
:108390003BA3D3E90023FEF7B9FE404B0022FFF7D1
:1083A0006BF83F4B0022FEF7B1FE0646207A0F46DF
:1083B000FEF7E8FF3B4B0022FFF75EF83A4B002246
:1083C000FEF7A4FE02460B4630463946FFF754F846
:1083D000064694F90C000F46FEF7E4FF334B0022EB
:1083E000FFF74AF8324B0022FFF746F802460B46E9
:1083F00030463946FEF78AFE0646A07B0F46FEF75A
:10840000C1FF2C4B0022FEF781FE02460B460020E6
:108410002849FFF75BF902460B4630463946FFF71D
:108420002BF8064694F90D000F46FEF7BBFF16A386
:10843000D3E90023FFF720F8194B0022FEF766FE70
:1084400002460B4600201649FFF740F902460B464C
:1084500030463946FFF710F80DA3D3E90023FFF7A4
:108460000BF8154B0022FEF74FFEFFF717FAE073EB
:10847000D0BD00BFAFF30080FCA9F1D24D62403FF8
:1084800055C1A8A44E40633FFCA9F1D24D62603FA4
:108490003333333333330B40D000002000006940C6
:1084A0000000F03F0000B03F008048400000503F17
:1084B00000003A4000001040000039400000000079
:1084C0002DE9F34125294768044698460AD80C2926
:1084D00005D9494B0D3989B2CB40D90704D46FF087
:1084E000850010E04C29FAD1D6B2152E06D1D8F865
:1084F0000050002D0ADA6FF0150004E020460BF062
:108500009CFA0028F3D002B0BDE8F081D8F804004E
:108510000028F0DB133E052EE1D8DFE806F003313A
:108520003B49515C142DE6DCFEF73CFF30A3D3E958
:108530000023FFF7CBF8064628460F46FEF732FF2A
:1085400002460B4630463946FEF7E0FDFFF7C6F916
:108550002A49FFF721FB2A49FFF7D2FBFFF7E2FC8C
:108560000DF10602ADF806000421204604F09CFA45
:108570000028C8D1606802B0BDE8F0410BF022BA13
:1085800040F6B8339D42B6DCADF806500DF1060258
:108590000621EAE7A5F52F73B3F5FA7FABD80DF105
:1085A000060208212046ADF8065004F07DFAAAE73D
:1085B000012DA0DCADF806500DF106020B21D4E729
:1085C000AA0798D13B7A002B89D0ADF806500DF15F
:1085D00006021621C9E7AB078DD13B7A002B3FF489
:1085E0007EAFADF806500DF106021821BDE700BFC1
:1085F0000000000080842E410900000100FF7F4739
:1086000000002F430000000070B5144606460846DF
:10861000FFF76EFA2146FFF7BFFAFFF737FD0E4D61
:1086200080FB05450AA3D3E9002320462946FFF72E
:1086300099FC0A4A3060002320462946FFF792FC45
:10864000064A0023FFF78EFC726070BDAFF3008016
:108650000010A5D4E80000003AA3950040420F00A6
:1086600070B5144606460846FFF742FA2146FFF762
:1086700093FA1349134DFFF743FBFFF707FD80FB08
:1086800005450BA3D3E9002320462946FFF76AFCE2
:1086900009A3D3E90023306029462046FFF762FC96
:1086A000094A0023FFF75EFC726070BDAFF30080E3
:1086B00000209BF35E10000080A812010000000063
:1086C00000002041D8EF2F0040420F0000000000C2
:1086D000032970B504460D4604D007294DD06FF02C
:1086E000850025E0B2B3072AF9D158681A68564BBD
:1086F000C117C2FB0301012871F100033ADB534BA0
:10870000C01841F100014CA3D3E90023FFF72AFC74
:10871000022826690DD010280DD004280DD0082875
:1087200028D1294620460BF09AF940B16FF0040099
:1087300070BD0025F5E70125F3E70225F1E7444B7D
:1087400033F815103D2081FB0001FFF7E7F9F060D9
:108750000020EDE719883F4B33F8020B814206D128
:10876000D1B2204604F0E2FA0028F1D0DEE701326F
:108770000C2AF1D16FF01500DAE7002A4BD0072A56
:10878000ADD15A681D683048D11713460A46C5FB5B
:108790000032B425A3FB0501012B05FB021172F188
:1087A000000228DB2C4BC01825A3D3E9002341F19C
:1087B0000001FFF7D7FBFA28266924D0B0F5FA7F2D
:1087C00023D0B0F57A7F22D0B0F5FA6F21D07D2882
:1087D000D0D10425294620460BF051F90028A5D117
:1087E0001E4B33F8151041F2171081FB0001FFF703
:1087F00095F9F061ACE71A4BC01861F1000110A3C4
:10880000D3E90023D5E70025E4E70125E2E70225C7
:10881000E0E70325DEE719880E4B33F8020B8142AF
:1088200004D1D1B2204604F069FA9DE701320C2A46
:10883000F3D19FE7AFF300803AA39500000000005A
:10884000D8EF2F000000000040420F009DD14A00E9
:108850004061030048610300ECF717003661030034
:108860001408E8FF38B500F063F8046800F064FA13
:1088700005680D4808F0C8FB28460CF078F820B9C8
:108880000A4808F0C1FB002038BD20460CF06FF804
:108890000028F5D0064808F0B7FB064806F0EAFACB
:1088A000054806F0E7FAEEE760610300686103003F
:1088B0007C610300000800207807002010B586B016
:1088C00004460D4B00940124CDE9031201940722C4
:1088D000002418688DF808409B888DF814209DF8B6
:1088E000142042F002028DF81420826869469468D0
:1088F0000222A04706B010BDD00000201FB50246DE
:108900000A4B01920222186802929B888DF80C2073
:108910009DF80C2042F002028DF80C20826801A91B
:1089200094680122A04704B010BD00BFD000002011
:1089300000487047D00000202DE9F04194B000F0CD
:108940002BFB44220021064668460CF081FCED23F7
:108950008DF80030354B03930127D919EC228DF89F
:10896000102007910222EE2106928DF820108DF83A
:1089700030209918DA1C043313932D4B2D4C0F9291
:108980009A1C05921A1D20680193099203F10C02AA
:108990000D33119314AB03EB001502970A970E9752
:1089A00012970D920B910DEB001055E91312FFF782
:1089B00085FFDFF884802168034690B955F8442C80
:1089C000C8F800003944177021602368042B1ED8B2
:1089D000A422002306F1480006F050F914B0BDE8C7
:1089E000F08115F8502C154808F00EFBD8F800302F
:1089F0000133022BC8F80030E7DD236855F8441C2A
:108A0000002201330A702360C8F80020DDE70C4B18
:108A10001A7DC2F301129A735A7D5A7300232360A0
:108A200006F1780005F026FFD8E700BFFB11002013
:108A3000D8000020F80C0020F40C00209F610300F7
:108A4000D0000020F0B585B000F0A6FA45F664131A
:108A5000ADF804305A238DF80830564B564DDB7B69
:108A60008DF8093071238DF8013074238DF80230B0
:108A70002B780446032B17D8DFE803F00221386671
:108A800001A8FFF73BFF4D4E0146183490B14C480A
:108A900008F0BAFA33680133022B336006DCA422F3
:108AA0000023204606F0EAF805B0F0BD4548032152
:108AB00008F0AAFA0023336001232B70EFE702A825
:108AC000FFF71CFF3D4E0146183458B13E4808F0F0
:108AD0009BFA33680133022B3360E0DD3B4803210E
:108AE00008F092FA002333600223E6E701220DF139
:108AF00003010DEB0200FFF7E1FE304F064618348C
:108B000080B10146324808F07FFA3B680133022BFE
:108B10003B60C4DD2F48032108F076FA00233B6058
:108B20000323CAE79DF8033023F00F0343F020032B
:108B3000712203A88DF803308DF80C208DF80D30CC
:108B4000FFF7DCFE3E60EBE701220DF103010DF1C2
:108B50000200FFF7B3FE194E0546C0B101461E489C
:108B600008F052FA33680133022B336004DCA4228C
:108B7000002304F1180095E71848032108F044FA8F
:108B80000023336004F1880005F074FE8CE79DF843
:108B9000033023F0030343F00103742203A88DF88C
:108BA00003308DF80C208DF80D30FFF7A7FE3560EF
:108BB000E8E700BFD000002000120020F00C0020E9
:108BC000C8610300E861030012620300326203001F
:108BD0005C6203007C620300A6620300CE620300B5
:108BE00007B52D2301220DF107010DF106008DF8C7
:108BF0000630FFF763FE30B1084808F005FA0020A0
:108C000003B05DF804FB9DF80730DA0601D4044890
:108C1000F3E7044A0120D376F2E700BFF7620300CE
:108C200012630300D000002073B52C238DF80430AC
:108C300001222D230DF1060101A88DF80530FFF763
:108C40003DFE10B1194808F0DFF901220DF10701CE
:108C50000DF10500FFF732FE10B1154808F0D4F908
:108C60009DF807309DF80620124D9C0944EA8204C5
:108C700003F00F034FF48020AB762C83D840FEF72F
:108C800033FF0D49FEF788FFA4F500744FF48053BD
:108C90000646032004FB0030FEF72AFF014630465B
:108CA000FFF72EF8286102B070BD00BF40630300DB
:108CB00059630300D000002000247449074A11784A
:108CC0004B1C03F007031370054B063103EBC10186
:108CD000486003F11C000BF0D7BF00BFFA11002061
:108CE000D0000020134B10B500221A7000F054F988
:108CF000002204460023483005F0C0FF0022002374
:108D000004F1180005F0BAFF4FF0FF324FF0FF33C7
:108D100004F1780005F0E2FD4FF0FF324FF0FF3331
:108D200004F1880005F0DAFDFFF722FBBDE81040F2
:108D300007F011BF001200200048704740010020DA
:108D400070B5174D00F028F92B78012B044612D08E
:108D5000022B18D01BBB134A252152F8040C07F034
:108D600025FF01232B7004F19800A422BDE8704078
:108D7000002305F083BF0C4A0D2152F80C0C07F0BC
:108D800015FF0223EEE7094A102152F8140C07F0F0
:108D90000DFF04F1C800BDE8704005F06BBD70BD6B
:108DA00001120020440100204C0100205401002049
:108DB00010B500F0F1F8094B00221A7004460022A9
:108DC0000023983005F05AFF4FF0FF3204F1C8003D
:108DD0004FF0FF33BDE8104005F080BD01120020C8
:108DE00070B5FFF7A5FD054600F0D6F82249044608
:108DF00048300BF0E2FF214904F118000BF0DDFFD1
:108E000005F11C0630460BF037FF0122002104F16A
:108E100078000BF052FF012204F1880000210BF0D2
:108E20004CFF00244FF0FF324FF0FF33144805F0A1
:108E30002DFCFFF757FFFFF7D3FEC0B1FFF7F4FE9D
:108E40002869FFF73BFF072C05D00134E4B20C483A
:108E500005F08EFCE6E7304607F088FEFEF7B4FA30
:108E600002460B46074808F0CFF80024EFE7064813
:108E700008F0CAF8EBE700BF39890200458A020012
:108E80006006002072630300986303002DE9F04F31
:108E900087B0FFF751FF044600F07EF83A490546D7
:108EA00098300BF08AFF0122002105F1C8000BF079
:108EB00004FF04F11C0630460BF0DEFE04F130071F
:108EC00038460BF0D9FE04F1440A002550460BF059
:108ED000D3FE8DF815508DF816508DF817504FF0C1
:108EE000FF324FF0FF33294805F0D0FB206883683C
:108EF0004C21DB689847002806DA254808F084F8FA
:108F0000224805F035FCEAE7FFF752FF6068334678
:108F10000DF1160204F1980107F04BFE0135E068EF
:108F20003B460DF1150204F1D80107F042FEEDB207
:108F3000606953460DF1170204F58C7107F039FE94
:108F4000082DDDD1304607F041FE8046384607F057
:108F50003DFE0546504607F039FE83464046FEF783
:108F600033FA804658468946FEF72EFACDE90201CB
:108F70002846FEF729FA4246CDE900014B4605484E
:108F800008F042F80025BBE7418D02006006002092
:108F9000C5630300DD6303000048704788080020B4
:108FA00008B5024808F030F8002008BD106403003E
:108FB000014B1B68184700BF98020020014B186046
:108FC000704700BF9802002030B5044685B00D46BA
:108FD0001022002168460CF03BF902238DF8023084
:108FE0002A46044B01932146684606F09DFD05B0D4
:108FF00030BD00BFB18F02002DE9F047058B04465C
:10900000280717460CD501290CBF45F0100545F07F
:109010002005258387F31188BFF36F8FBDE8F087A4
:10902000022905F0070540F09480204608F014F866
:10903000052864D801A353F820F000BF1590020062
:1090400053910200FF900200C1900200DB900200E9
:10905000ED90020001F007035A1F012A1FD80022D9
:1090600021F00701062BD4F8008089B2C4E9002260
:1090700009D1434603E0628B013262831B68002BF7
:10908000F9D141F002012183204607F0E5FF4FF0BE
:10909000000900286DD041F02001218369E0042BF4
:1090A0000AD121F0070189B22183204607F0D4FFBD
:1090B00010B141F0200121834FF00008C14658E073
:1090C0002369D3F80090238B23F0070343F00603B2
:1090D00023834FF0000846464BE02369D3F8049001
:1090E000238B23F0070343F00403F1E72369D3F84C
:1090F0000890238B23F0070343F00503E8E74FF0C4
:109100000008C146E7E7012243F00803238387F301
:109110001188BFF36F8F002A3BD1B8F1000F4AD1FD
:10912000B9F1000F02D02D492046C847EFF311874F
:10913000202383F31288BFF36F8F238B23F0080360
:109140009BB22383D9063FD523F01002228303F07C
:1091500007056669218B002EBFF67CAF0023D4F88B
:10916000008021F00701C4E9003341F001012183AF
:109170009946238B03F0070AAA4502D0A268002A69
:10918000C1D1B8F1000F02D1B9F1000FDAD000223D
:10919000BAE7A1680029C0D00D680029BDD04F688A
:1091A000334652462046B8471DB12B6829461D4616
:1091B000F3E72B46FAE74146334652462046D8F8B5
:1091C000008007F075FFA8E79A067FF523AF23F02C
:1091D0002002228303F0070527E700BFDD1003000C
:1091E000014B036000207047D85D030007B51B49A1
:1091F0001B4808F064FA70BB1A49194808F05FFA76
:1092000048BB1949164808F05AFA20BB17491448B8
:1092100008F055FAF8B90146154A114808F036FD2C
:10922000C8B9024613490E48012308F009FE90B957
:1092300001230093014602230948EF2208F049F96F
:1092400048B9074808F06EF928B9054803B05DF839
:1092500004EB08F097B903B05DF804FB100300209D
:10926000E4060020F8020020E0020020C8020020EE
:109270009C0200204B64030080B505460E4617464D
:10928000984606F04FF9034600F000FCDFF818900E
:10929000044649F80030424630463946A84754F85B
:1092A000090000F08FFB00BF0800000008B503486C
:1092B000034A0021121A08F06BF808BD7807002055
:1092C000541200200748084A084908B5121A08F045
:1092D00061F80748074A0849BDE80840121A08F033
:1092E00059B800BF0000002078070020CC690300B7
:1092F0000000002000000020CC69030038B50546BE
:109300000C4699B1D1E901230F48096807F07CFEAA
:10931000D4E90423E1680D4807F076FEE1690C48C2
:1093200007F072FEA1690B4807F06EFE012D05D112
:10933000EFF305810848103907F066FE21462846FC
:10934000BDE8384004F04ABF64640300946403003D
:10935000C4640300D46403000365030030BFFFF757
:10936000FDBF00BF2DE9F0410B4EDFF8308006EB6A
:109370000807CC1B05463246094920460BF05AFF28
:10938000A01942460021083C0BF062FFAC6707F1D0
:109390000800BDE8F08100BF0000000008000000E8
:1093A0003C5B03002DE9F843324D80463248894644
:1093B000174607F029FEAB6ADE0622D52F4807F0D4
:1093C00023FE1124AB6A1D0703D52D4807F01CFEB0
:1093D0001224284DAB6A980715D52A4807F014FEC9
:1093E0006E6BAB6A190642D52748314607F00CFE72
:1093F000B9F1000F03D0AB6A23F08003AB621324F2
:1094000003E01024DEE76FF015061A4DAB6ADA07A9
:1094100003D51E4807F0F8FD1424AB6A9B0603D55C
:109420001B4807F0F1FD1524124B9A6AD50602D4A9
:109430009A6A90070AD55B68190507D541463046F8
:1094400000F076FA10B180F309880224094B9A6A79
:10945000920642BF5A6A22F400525A629A6A42F055
:10946000FF029A6200233B702046BDE8F8836FF04C
:109470001506C4E700ED00E0176503002E65030044
:1094800062650300766503008F650300A66503002F
:10949000C665030010B51D4C1D4807F0B5FDA36A55
:1094A000990130D51B4807F0AFFD1E20A36ADA01F1
:1094B00003D5194807F0A8FD1F20144CA36A1B030D
:1094C00003D5164807F0A0FD2120A36A590303D550
:1094D000134807F099FD22200C4CA36A9A0303D588
:1094E000104807F091FD2320A36ADB0303D50E4843
:1094F00007F08AFD2420054A936A6FEA03436FEA66
:109500001343936210BD1D20D0E700BF00ED00E0C3
:10951000F66503000F660300236603003E66030042
:109520005D660300836603009E66030070B5244CED
:10953000064624480D4607F067FDA36AD90435D5D1
:10954000214807F061FD1720A36A1A0503D51F48BB
:1095500007F05AFD18201A4CA36A9B050FD51C482A
:1095600007F052FDA16BA36A180407D5194807F04C
:109570004BFD1EB1A36A23F40043A3621920104CD3
:10958000A36A590503D5144807F03EFD1A20A36AC3
:10959000DA050DD5114807F037FD1B20084A936AFC
:1095A00043F47F43936200232B7070BD1620CBE7FA
:1095B000A36A9B04F2D50A4807F026FD1C20EDE7BC
:1095C00000ED00E0CA660300E16603006265030087
:1095D000F36603000D670300236703003F67030082
:1095E000C66503002DE9F0415D4B5F688AB0044613
:1095F000C7F30806002585F31188BFF36F8F02F0CB
:109600007F43B3F17F4F06D102F00C03082B13D137
:10961000544807F0F9FC00252C464FF00008F31ED3
:109620008DF80780092B00F28C80DFE803F00A80B8
:10963000847C8A8A8A8A8A8810074CBF0C46012556
:10964000EBE74948464E07F0DFFC8DF80780F36AE8
:109650009A0704D5454807F0D7FC00232AE0F36AAF
:10966000002B01DA4248F6E7F36A5B00F5D5414882
:1096700007F0CAFC7369A26943F480737361BFF396
:109680004F8FBFF36F8F32F8023C726922F4807201
:109690007261BFF34F8FBFF36F8F03F47F42B2F558
:1096A0005F4F27D1DBB2022B24D12168324807F06B
:1096B000ABFC23689DF80720CAB902AE04F120076D
:1096C00020686168324603C20834BC421646F7D1AE
:1096D000099A002D41D0C2F3080121B96FEA522244
:1096E0006FEA4222099202A91846FFF707FE0AB064
:1096F000BDE8F0811A4B9A6AD2B232B10DF107027D
:1097000001212046FFF74EFE0FE09A6A12F47F4FC8
:1097100005D00DF107010120FFF708FF05E09B6A66
:10972000B3F5803F99D3FFF7B5FE0346C2E70DF1CD
:1097300007020021E5E70DF107010020ECE70F48E3
:1097400089E70F4B0F49104817F4F87FA6F1100274
:1097500008BF194607F058FC7FE76FF30802C1E71E
:1097600000ED00E086670300B2670300CA670300EC
:10977000EC670300FB6703001B6803003868030005
:10978000586703006D6703005D680300044B5A6966
:1097900042F010025A615A6922F008025A61704779
:1097A00000ED00E0EFF30880EFF3098101B57246A8
:1097B000FFF718FF01BD00BF0B4880F3088803F0D6
:1097C000D1FD202080F3118808484FF4046140182F
:1097D00080F30988EFF314800221084380F3148892
:1097E000BFF36F8F00F06CF8402F00208021002025
:1097F0001EF0040F0CBFEFF30880EFF309808169BE
:1098000011F8021C0229FFD001B5724607F0C4FD11
:1098100001BD00BF40B2002807DB044A4109012313
:1098200000F01F00834042F82130704700E100E063
:1098300040B200280CDB4309064900F01F0020332A
:109840000122824041F82320BFF34F8FBFF36F8F77
:10985000704700BF00E100E0054B420900F01F0027
:1098600053F82220012303FA00F01040704700BF94
:1098700000E100E040B20028A8BF00F1604001F123
:109880000101B8BF064B4FEA4111ACBF00F5614082
:1098900000F00F00C9B2B4BF195480F8001370472C
:1098A00014ED00E0044B054A23F07F039360BFF3FF
:1098B0004F8FBFF36F8F70470070020000ED00E024
:1098C00008B5FFF7EFFF0B4AD2F8883023F4700396
:1098D000C2F88830EFF3148323F0040383F3148871
:1098E000BFF36F8FFFF7E2FCFFF7ECFC00F0B0F87E
:1098F00004F03AFD00ED00E042F8203C009B42F805
:109900001C3C0A49019B42F8183C029B42F8143C5B
:1099100021F001014FF0807342F8043C42F8081C2A
:109920000023203A0265C367704700BF79920200A6
:10993000094A0346906870B113F1160F806E05D086
:10994000A0F14002934205D3834203D2814228BF53
:109950000020704700207047C011002008B5154650
:109960000B4A0C4B9060826F1A600E4600F0A0F814
:109970002C4686F309880020034B98472046002197
:1099800000220023014C2047BD13030079920200FE
:10999000C0110020FC0C0020014B10221A617047FE
:1099A00000ED00E0054B5A699B689A421FBF044ACC
:1099B000536843F080535360704700BFC0110020CC
:1099C00000ED00E0084B9B6883420BD1EFF3058369
:1099D00043B1064B5A6842F080525A605A6A22F4E8
:1099E00000425A620BF00BBAC011002000ED00E0FB
:1099F00014498A684FF030001044EFF3098C80E876
:109A0000F01F202080F31288BFF36F8F0E4F4FF0AE
:109A100000664A698A603E60906F0C4C2060D06F8F
:109A20000023D36780F3118804B5104600F040F896
:109A3000BDE8044002F1300090E8F01F8CF3098883
:109A400070470000C011002004ED00E0FC0C002075
:109A5000044800232021C2180133302B82F8001360
:109A6000F9D1704700E100E008B5EFF30583064A3D
:109A7000103B02EBC30152F8330049688847BDE848
:109A80000840FFF78FBF00BFE4570300014800689C
:109A900070470000FC0C0020024B034A03480121E0
:109AA00000F076B80000042000000020D85D03001C
:109AB000836E054A403B1360044B4021C2E9011309
:109AC0001046012100F06EB8000D002000000B15BB
:109AD000084AC2F898000B6823F01F03034343F0C1
:109AE0001003C2F89C308B6843F00103C2F8A03029
:109AF000704700BF00ED00E02DE9F043DFF8608023
:109B000085B00E461F4604464FF00009B14523DAE2
:109B10006068D8B13FB1411E08421BD11F2819D936
:109B20002368194216D12368019307F05BFCA368F0
:109B300003430393D8F89050C5F30725D0B2013DF5
:109B4000A84207D801A9FFF7C3FF421C09F1010988
:109B50000C34DBE76FF01502104605B0BDE8F0836A
:109B600000ED00E0044B0522C3F89420BFF34F8FB3
:109B7000BFF36F8F704700BF00ED00E0BFF35F8F52
:109B8000024B0022C3F89420704700BF00ED00E0B4
:109B900010B5034C01232278FFF7AEFF207010BDF3
:109BA0000212002008B50B4A00231278FFF7A4FF29
:109BB00010F1160F07D0084A0021D2F89030C3F3F5
:109BC0000723984200DB08BDC2F89800C2F8A01035
:109BD0000130F2E70212002000ED00E02DE9F04331
:109BE0005A4B5B4DD3F890302C68C3F307239C424B
:109BF00085B000F2A780FFF7C1FF00200C26844249
:109C00001AD1544EDFF8449134706846FFF7E8FAF1
:109C1000514C524D80460027B84514D133784B49FA
:109C20000020D1F89020C2F307229342C0F2848032
:109C3000FFF798FF002045E0696806FB0011FFF779
:109C400047FF0130DBE7009800EB07114FEA071CE4
:109C5000CB682340B3F5000F4DD00AD8B3F5001FF1
:109C600033D0B3F5800F3BD0B3F5801F13D001374D
:109C7000D2E7B3F1007F47D0B3F1805F4DD0B3F1AD
:109C8000807FF4D150F80C3088684A6807F0AAFB4E
:109C900040F0887009E050F80C3088684A6807F096
:109CA000A1FB40F0885040F43020CDE9012303901F
:109CB000D9F890303078C3F30723013B984234D968
:109CC0006FF0150005B0BDE8F08350F80C308868DF
:109CD0004A6807F087FB40F0885040F40020E4E732
:109CE00050F80C3088684A6807F07CFB40F0C06090
:109CF00040F40030D9E750F80C3088684A6807F023
:109D000071FB40F08270D0E750F80C3088684A68E8
:109D100007F068FB40F48020C7E750F80C308868F3
:109D20004A6807F05FFB2843BFE701A9FFF7D0FEB1
:109D30003378013333709AE7C1F89830C1F8A00046
:109D400001336EE74FF0FF30BCE700BF00ED00E0ED
:109D5000E45D0300021200200000F0FF0000021189
:109D600008B5024B1B689847002008BD0C0D002069
:109D7000034B044A1860937843F0020393707047D2
:109D80000C0D00202803002008B50649064821F0E4
:109D90000701C1F1005202F5802207F0F2F800201D
:109DA00008BD00BFFF420020100D002070B54169C2
:109DB000867A0B4D044659B1437ADB0706D4242337
:109DC00003FB0653DB691B689B68984700236361AC
:109DD0002420214600FB0650BDE870400AF05FBF1A
:109DE000C0060020024B242202FB0030704700BF57
:109DF000C00600202DE9F04385B005466846039172
:109E000090461C460BF051F9DDE90067EFF311892C
:109E1000202383F31288BFF36F8F6B8A002B41D00E
:109E20002A8A9A4225D900220023284604F0F0FC11
:109E30000446F0B189F31188BFF36F8F039B002BA9
:109E400041D032463B4668460BF054F9A27A264B85
:109E5000242101FB02332046DB691B6803A91D682E
:109E6000DDE90023A847606170BB2046FFF79EFF35
:109E700024E0698A4B1E6B8289F31188BFF36F8FD0
:109E80002B7D2A8A2C6A1B3323F00303521A02FB10
:109E90000344154B154AEB1A9B105343A3722B7DB9
:109EA000E372CBE789F31188BFF36F8F23464246F5
:109EB000284604F0ADFC04460028BFD1002420460B
:109EC00005B0BDE8F0836361012300252381039B76
:109ED0006382E27A6560294604F118000BF0B8F954
:109EE00063692582E360EAE7C0060020398EE33823
:109EF000F8B5124D0024242600B9F8BD00F108027F
:109F00004768BFF35B8F52E8003F591E42E8001CD0
:109F1000BCF1000FF7D1BFF35B8FDBB2012BECD1AB
:109F2000837AC46006FB035344609B6913B198476E
:109F30003846E1E7FFF73AFFFAE700BFC006002026
:109F40000C4B0122C3F840254FF080434FF0805165
:109F5000C3F87825D1F83001082805D1D1F834119B
:109F6000022908BFC3F838260122C3F88025002043
:109F7000704700BF00E0014048B1054B054A1B682F
:109F8000B3FBF2F35843044B43F001031847704707
:109F90009C05002040420F00405B030008B5054AC5
:109FA000054B136010463F23536003F0B1FA0020C5
:109FB00008BD00BF1C0D0020FFFF0F002DE9F04180
:109FC00090F8283003F01F03012B04460F4600F1E0
:109FD00028062FD0022B18D08BB394F829102046D6
:109FE00007F013FB024678B3304607F0F8FB1D4D2F
:109FF000002834D113693BB33A463146204698478E
:10A000000346FFF743FD2B5024E0818DC9B207F0D2
:10A01000DDFE05460028E0D0304607F0E0FB0246B2
:10A0200068688368CAB99B6873B13A463146BDE82F
:10A03000F0411847818DC9B207F0AFFEE9E790F80B
:10A04000291007F0E6FEE4E7FFF720FD054B6FF06F
:10A0500085021A500020BDE8F081DB68E4E7D36890
:10A06000C9E700BF0C0000002DE9F04F0B7E33F074
:10A07000800893B004460D46164640F08E847AB1AF
:10A080000846FFF735FF6B7EDF0703D49E0711D527
:10A090002B7E7BB9204613B0BDE8F04F07F0CBBB59
:10A0A0004A7E00F12809900708D5802B0CD128465C
:10A0B000FFF71EFF404613B0BDE8F08F910700F098
:10A0C0002784002B40F02484D2072FD52B8A082B1D
:10A0D00040F00684EA681368A3625368C9F8043044
:10A0E0002946002007F0ABF9054610B1FFF700FF45
:10A0F000EFE0484607F073FBE28D70B9B2B1294634
:10A10000A06908F0BFFE0146002800F02D8420461B
:10A1100013B0BDE8F04F07F0FFBF3AB1114620463B
:10A1200007F0F5FF0546002800F01E84FFF7AEFC9F
:10A1300094F82880B14F002318F0600FC351C8F382
:10A14000411307D0032B40F0BD81FFF79FFC6FF058
:10A15000850337E0484607F042FB94F82930002891
:10A1600040F04E81013B0A2BEFD801A252F823F0B8
:10A17000E7A202004BA1020073A302004BA1020060
:10A180009DA102004BA102004BA102004BA10200C5
:10A190000DA202004BA102006FA20200618D7F2977
:10A1A000D3D8A38D002BD0D1E38D002BCDD118F0C7
:10A1B0001F0FCAD194F83030022B05D1FFF766FC8F
:10A1C0004FF0FF333B5076E0A069036993F880308D
:10A1D0001B0707D5C9B207F064FB804628B1002DE4
:10A1E0006CD167E7012384F8393094F83030012BC3
:10A1F0000AD1638D43B984F83030FFF747FC3B58F0
:10A20000002B00F0858056E00123F4E7204607F09C
:10A210005BF9628DFF2A014697D8E38D002B94D11C
:10A2200094F82830D80690D194F83030002BC5D05F
:10A230002AB1D2B2204607F0D6FC0028BED0618DEC
:10A2400094F838308B42D8D0C9B2204607F0D2FCFF
:10A2500080460028C3D1628D002A14BF0223012347
:10A2600084F830300521204607F0E1FFC5E708F00B
:10A270001F08B8F1010F7FF468AFE38D002B7FF466
:10A2800064AF628DFF2A3FF660AFA18DFF293FF6D4
:10A290005CAF94F83030022B90D1D2B2C9B22046D4
:10A2A00007F0B8FE10F1020F804640F01081FFF772
:10A2B000EDFB47F8008065B14FF000082846FFF736
:10A2C00017FEB8F1000F7FF4F5AEFFF7DFFB3B5848
:10A2D000F3B1484607F083FA0346A069002B00F06B
:10A2E0004F83802155E3E38D002B7FF42EAF94F84C
:10A2F0003030002B3FF462AF012BA18D02D1002939
:10A300007FF45CAF18F01F080CD0B8F1020F16D024
:10A31000E38D002B40F0D782204607F076FA002824
:10A32000D7D1B7E600297FF449AF638D012BEFD178
:10A3300094F86C3061F3C30384F86C30E8E7B4F848
:10A340002AA0BAF1000FE3D15FFA81F84146204616
:10A3500007F053FF0346FFF799FB3B50013302D14F
:10A360004FF0FF383BE752464146204607F03DFAA2
:10A3700043E7E38D002B7FF4E8AE628DA38D022AC4
:10A380005FFA83FA11D108F01F085AEA08087FF42F
:10A39000DCAEA0690122190A07F060FA00287FF4F8
:10A3A000D4AE012384F8393027E794F8301000291F
:10A3B0003FF404AF012902D1002B7FF4FFAE18F067
:10A3C0001F0811D0B8F1020FA2D1002AA0D1514626
:10A3D000204607F0FDFE0346FFF758FB3B500133D4
:10A3E000BED001225146C0E7002B7FF4E7AE012A20
:10A3F0008ED194F86C3043F008039DE70C00000008
:10A400000A2B3FF6A2AE01A252F823F039A40200B3
:10A410004BA102004BA102004BA102004BA1020084
:10A420004BA10200B3A402004BA1020043A802000A
:10A430004BA102006DA80200E38D022B7FF485AED4
:10A4400094F83030002B3FF4B9AE012BA18D02D12E
:10A4500000297FF4B3AE18F01F0811D0B8F1020F35
:10A460001CD04FF0000805F10C0A504607F0AFF978
:10A47000E38D984218D2FFF709FB6FF00B03A1E6BA
:10A4800000297FF49BAE94F86C304FEA930808F0F3
:10A490000208C3F3001348EA0308E4E7C9B2204600
:10A4A00007F0BAFE8046DEE74146504606F0EAFF76
:10A4B000A3E6B4F82AA018F01F0F4FEA1A235FFA98
:10A4C0008AFA09D029462046FFF778FD8046B8F180
:10A4D000000F7FF484AE90E6013B0E2B3FF635AEC5
:10A4E00001A252F823F000BF25A5020065A50200D5
:10A4F0000FA602004BA102004BA1020007A602001A
:10A5000007A602004BA102004BA102004BA10200D2
:10A510004BA102004BA102004BA102004BA1020083
:10A5200051A7020005F10C08404607F050F9834698
:10A530002046B4F82EA006F0C7FF20B101287FF412
:10A5400004AE616F00E0216F002900F02A820A78D2
:10A55000DA4528BFDA46524528BF5246404606F043
:10A5600080FF4AE6204606F0AFFF0AF101020190A3
:10A570000146D2B2204607F010FB804600283FF487
:10A58000E4AD05F10C0AD0F804B0504607F01FF90D
:10A590009BF80020824228BF02465946504606F0EA
:10A5A00060FFD8F80CB0BBF1000F09D1298AE38D08
:10A5B00099427FF622AEC91A504606F06DFF1CE69E
:10A5C000DBF8040083681B6B13B9DBF800B0EAE723
:10A5D000019998470028F8D0A0F1040858F8041F02
:10A5E0000029F2D00A78002AEFD05046CDE90221A6
:10A5F00007F0EDF8029A0399904238BF82B25046B4
:10A6000006F02FFFEAE7204606F05EFF9DE5524682
:10A610000321204607F039F8824600283FF495AD23
:10A6200007F0D0F8B4F82EB09AF81530C8B99AF8F7
:10A6300014808DF828808DF82930DAF8103005F173
:10A640000C0A1B88ADF82A30504607F0C0F8C34505
:10A650005A4628BF4246824228BF02460AA95046AF
:10A660007DE7DAF808208DF81530C14B1340C14A58
:10A670004FF0000893428DF8148058D1102106A89D
:10A6800008F023FE021EFFF660AD0AA9102ADFF8CB
:10A69000E8E20DF1180C084628BF1022424501F1EE
:10A6A000020133D8920002325FFA82F88DF81480EA
:10A6B000034605F10C0A5046029307F088F8D84586
:10A6C000424628BF5A46904228BF10460228834679
:10A6D000804628BF4FF0020B5A46A8EB0B0805A98D
:10A6E000504606F0BEFE4FEA58030193029B9B467C
:10A6F00003EB5802934521D118F0010F3FF47DADD3
:10A70000019A995C504606F0B5FE76E51CF8013BCF
:10A710004FEA131A03F00F031EF80AA01EF80330C5
:10A7200001F802AC01F8013C08F10108B6E79AF81B
:10A730001480DAF810308DF81480BAE71BF8011B8A
:10A740005046CDE9023206F09DFEDDE90232D1E746
:10A75000204606F0B9FE38B101282CD0FFF796F953
:10A760006FF085033B5048E5236F002B00F0198103
:10A770005B88B3F5007FF1D9804B0A9300238DF8F5
:10A780002C30E36C04F14C0B9B4508BF0023BDF853
:10A790002A10A3B15A7D0F2A08D11A7D0A44ADF8B8
:10A7A0002A209DF82C2001328DF82C20226D934216
:10A7B00003D01B68EBE7636FD7E7BDF82A10019160
:10A7C00005F10C0A504607F002F8B4F82E80019902
:10A7D000884528BF8846804528BF80464246052ACE
:10A7E00028BF05220AA95046019206F03AFE019AB6
:10A7F000B8EB02083FF401ADE36C5B453FF4FDAC00
:10A80000002B3FF4FAAC5A7D0F2A14D11A7D196936
:10A810000193424528BF4246504606F022FE019B66
:10A820001A7D424594BFA8EB0208A8EB0808B8F1CE
:10A83000000F3FF4E2AC226D93423FF4DEAC1B68A4
:10A84000DEE794F83030002B3FF4B8ACE38D012BF9
:10A850007FF47BAC05F10C08404606F0B8FF0028F9
:10A860003FF409AE94F8381040464CE708F01F0852
:10A87000B8F1010F7FF4A2AC204607F0A2F900283E
:10A880003FF49CACB4F82CA0BAF1FF0F3FF65DACDE
:10A8900043681B795345FFF458AC5FFA8AF30F2BDA
:10A8A0003FF653ACE38D012B7FF44FAC05F10C0860
:10A8B000404606F08CFF00283FF4DDAD04EB0A03B0
:10A8C00093F83A10D0E7484606F089FF18B92846B1
:10A8D000FFF70EFB20E52946204607F01DFC08B1D6
:10A8E000284603E4A069036993F8801011F004017D
:10A8F0007FF4D0AB08F0DAFA054600283FF4E9AC63
:10A900000146204607F008FC00283FF4C3ABE7E708
:10A9100052077FF5DEAC002B3FF4C9AB2846FFF7AA
:10A92000E7FA94F83930002B3FF4C4AB94F829309F
:10A93000052B05D1618DA069C9B206F0B2FF0646AC
:10A9400094F82930032B09D1638D022B06D1A18DF8
:10A95000A0690022090A06F081FF0646002384F858
:10A960003930B046FFF7A6BB6FF00B06B1E400BF6D
:10A9700000FF0200000302009E690300050F0500AE
:10A98000E38D002B3FF4ADAC16F10C0118BF012193
:10A99000C90108F090F9FFF77DBB6FF00408FFF7DD
:10A9A00089BB6FF015081AE40B78062B10B414D18C
:10A9B0000369D3F89C20EFF31184202383F31288DA
:10A9C000BFF36F8F4B6800201860506A58B9C2E916
:10A9D000083384F31188BFF36F8F044810BC002242
:10A9E00000230AF0B2B803605362F2E77406002055
:10A9F0002DE9FF4120264FF0FF335E484FF0FF3234
:10AA000001A903F0DFFD039B1B69D3F89C40236A77
:10AA100093B1EFF3118286F31288BFF36F8F216A2F
:10AA200029B1606A0B682362814208BF636282F3C6
:10AA30001188BFF36F8FC9B99DF80430062BDAD0A7
:10AA4000072BD8D801A252F823F000BF9FAA02001A
:10AA500093AA0200BFAA0200A5AA0200E3AA02006C
:10AA6000D9AA0200F7A902006DAB02000B7ED1F853
:10AA70001E205D06204609D1FFF7F6FA024600289F
:10AA8000C5D00721204607F0D2FBC0E707F095F9B3
:10AA9000F4E700220121204607F0C9FBABE70022C2
:10AAA0001146F8E794F86C3043F0040301A984F8E8
:10AAB0006C30204606F01DFF00220321EBE794F8DE
:10AAC0006C3023F0040301A984F86C30204606F0B2
:10AAD00010FF00220221DEE701A9204606F009FF4F
:10AAE00089E794F86C30A76923F0040384F86C308C
:10AAF000D7F808803B69BFF35B8FD3F8A030BFF372
:10AB00005B8F9A072FD5D8F83C3038469847D8F84D
:10AB10002430002138469847D8F84030054638465A
:10AB20009847ADB92946204607F064F8054678B93C
:10AB3000A06908F0DAF9831E5842584194F86C3045
:10AB400084F8305023F0680343EA401384F86C30F3
:10AB500000220421204607F06AFB002D3FF44BAF92
:10AB60002A46072197E74FF0FF35F1E7029A0621C1
:10AB700091E700BF7406002030B589B000220023A1
:10AB8000CDE9062300246FF00703CDE90334CDE9B6
:10AB900001441A4B1A4900944FF48062194804F09A
:10ABA0008DF9194917480AF027F9184B18498B42B3
:10ABB00007D3184B184900208B4210D3002009B04E
:10ABC00030BD03F11402BFF35B8F52E8000F42E87F
:10ABD0000045002DF9D1BFF35B8F1833E7E703F190
:10ABE0001402BFF35B8F52E8004F42E80005002DCE
:10ABF000F9D1BFF35B8F1833DEE700BFF1A9020084
:10AC0000001B00206009002080680300600700200E
:10AC100078070020780700207807002038B5024622
:10AC200009490546806908F0C6F9044648B985F81F
:10AC30003800284606F0B4FE044610B1A86908F0B2
:10AC4000EDF9204638BD00BFA9A9020070B5084C37
:10AC5000084E0546B44202D30024204670BD636806
:10AC600028461968FDF708FA0028F6D01834F1E7ED
:10AC7000600700207807002070B50646EFF31181C9
:10AC8000202383F31288BFF36F8F1B4D2A6881F353
:10AC90001188BFF36F8F526892F86C20D20705D4E9
:10ACA000BDE870402122002304F01CB8EFF31182AC
:10ACB00083F31288BFF36F8F2C682CB16968236807
:10ACC0002B608C4208BF6B6082F31188BFF36F8FDB
:10ACD00044B1606804F10801C369984707482146F8
:10ACE00009F0E3FE2B6833B130460022BDE8704026
:10ACF000002303F0C3BF70BD240D002030060020E8
:10AD000030B585B0CDE90012054600221448002375
:10AD100003A903F0C3FB0246E8B9039BDDE9000188
:10AD20005D60083383E80300EFF31180202383F391
:10AD30001288BFF36F8F039B1A600A4A516861B98A
:10AD4000C2E9003380F31188BFF36F8F06480022F9
:10AD5000002303F093FF05B030BD0B605360F1E7B3
:10AD600030060020240D00200000002038B54B786C
:10AD7000046945682069202B08D0222B19D0FEF7E2
:10AD800085FE114B6FF085021A5010E0CB88072B1F
:10AD9000F5D1D3681A6842609A8802819B798372E0
:10ADA00007F066FA22460821284607F04EFA0020EE
:10ADB00038BD4B888381C3F3400203F00103027660
:10ADC000437622460921EFE70C00000008B5134640
:10ADD0004A78212A14D133B9FEF758FE0B4B6FF095
:10ADE0000B021A500AE0CA8801690969072A28BFBC
:10ADF0000722043103F10C0006F033FB002008BDEC
:10AE0000FEF744FE014B6FF08502EAE70C000000FC
:10AE100073B504698DF807102025EFF3118685F3CB
:10AE20001288BFF36F8F0122E06B0DF1070106F06E
:10AE30006CFA86F31188BFF36F8F012810D009F0E8
:10AE4000D5FFA8B10E4BBFF35B8F012253E8001F63
:10AE5000002903D143E800200028F7D1BFF35B8F1E
:10AE60002122002304F1480003F008FF02B070BD66
:10AE7000A37E002BE6D0002121200AF082F8CCE747
:10AE80002C0D002038B505690E49EB6B0024C3E991
:10AE90000144DC606B6B05F14800C3E90144DC60F0
:10AEA00009F08BFF05F17800074909F05AFF0749BF
:10AEB00005F1240009F055FF284607F0D9F920468E
:10AEC00038BD00BF1D240300CB2503005726030017
:10AED000F8B587681446FB6B05460E469847214631
:10AEE000064800220023FEF785FF044600B10676DF
:10AEF00028463B6C98472046F8BD00BFC00600209E
:10AF000010F0080F0B4B42B20CD100F00F00002ADA
:10AF10004FF0140202FB0033B4BFD3F80806D3F895
:10AF200008077047002AB4BFD3F8A806D3F8A807CB
:10AF3000704700BF00700240F8B50246EFF3118180
:10AF4000202383F31288BFF36F8F00F0080508F009
:10AF50009EF80124844057066FEA04061BD0D5B939
:10AF6000174F3B6823FA00F0C00714D533403B600D
:10AF700053B2DB4322F08000DB0F00F2DA301B011A
:10AF800003EB40030F48C0F80038D0F8043843F012
:10AF90000203C0F804380C4803683340036035B935
:10AFA0000A480368120654BF334023430360054B2D
:10AFB000C3F86C4481F31188BFF36F8FF8BD00BFF5
:10AFC000880D0020007002408C0D0020900D0020A4
:10AFD000EFF31180202383F31288BFF36F8F0A4BA6
:10AFE000D3F8001C032261B949F27531C3F8001C83
:10AFF000C3F8142DC3F8001C80F31188BFF36F8FC2
:10B000007047C3F8142DF7E700E00640EFF3118016
:10B01000202383F31288BFF36F8F0A4BD3F8001CF1
:10B0200061B949F27532C3F8002CC3F8141DC3F896
:10B03000002C80F31188BFF36F8F70470022C3F894
:10B04000142DF6E700E0064070B5024608F01FF840
:10B05000EFF31185202383F31288BFF36F8F531E04
:10B060000124062B04FA00F40FD80E4E0E4B316863
:10B070001B680B43C34013F0010306D10B4802F5D4
:10B080009472214340F822303160094A1368234307
:10B090001360084B8022C3F8042185F31188BFF3A5
:10B0A0006F8F70BD880D0020900D00200070024051
:10B0B0008C0D002000E100E0F8B50306044623D41F
:10B0C00010F0080720D100F00F02920002F1804238
:10B0D00002F51C32D2F84434B3B1EFF311862023C9
:10B0E00083F31288BFF36F8F07F0D1FF084DC2F8CA
:10B0F000A074012303FA00F12B6823EA01032B60FB
:10B1000086F31188BFF36F8F024BC3F81845F8BD63
:10B11000900D00200070024010B591F91800154BF9
:10B120000A7E0028B4BFD3F81045D3F8144502F0C6
:10B130000F020123934023420DD10E4A0028B5BFD0
:10B14000D2F81005D2F8140503430343B4BFC2F884
:10B150001035C2F814350B7E1A0709D4054AC2F817
:10B160000C3543F48073C2F80C35087EFFF7A4FF5A
:10B17000002010BD007002400B7E064A13F07F0FC6
:10B180000BBF012343F480735365C2F818350020C8
:10B19000704700BF0070024070B506460D4607F0CC
:10B1A000E8FB044607F0EEFB28BB204607F00DFC49
:10B1B00008B3802D16D1437E9A0744BF0E4A1570FE
:10B1C0005B070FD50D4B1B7813B90D4B01221A6588
:10B1D000204607F0F6FB002201463046BDE87040ED
:10B1E00007F00CBC2846FFF72FFF20460121BDE8E1
:10B1F000704007F0CBBB70BD051200200A12002082
:10B200000070024070B506460C4607F0B2FB0546DA
:10B2100007F0B8FB20BB284607F0D7FB0146F8B182
:10B22000ACB9437ED8071BD49A0704D50D4B1C70CC
:10B230000D4B0122DA644B7E5B0708D50B4B1B7864
:10B2400073B130460022BDE8704007F0D7BB2046FE
:10B25000FFF7FAFE28460121BDE8704007F096BBD3
:10B2600070BD00BF05120020007002400B120020CC
:10B2700010B54468206801F033F80D4B18600D4B91
:10B280001B782BB10C4B00221868114607F0AAFB63
:10B29000002201212720FEF7EDFA201D02F010FC0C
:10B2A00004F1080002F04AFC09F06AFA002010BD1F
:10B2B000400D002007120020940D0020012810B539
:10B2C000014619D0022809D0A8B90F4B02461868C8
:10B2D00007F088FB0D4B01221A700CE00C4B0D4C53
:10B2E00000221A700C4BC4F800332720FEF792FAA4
:10B2F0000123C4F8043510BD034B0022186807F081
:10B3000071FB024B0022E7E7940D0020071200209A
:10B310000612002000700240FDFFDF0101460148D7
:10B3200009F06BBFAC06002008B5054B1970054B42
:10B330001B7813B10420FFF7F1FF002008BD00BF08
:10B34000081200200912002010B50469087E0D4A79
:10B3500007F09DFE012303FA00F013680343136016
:10B3600004F0BCF84020FFF7D9FF4FF0FF324FF058
:10B37000FF3304F18401044803F0F4FC04F0C2F844
:10B38000002010BD840D0020B80600202DE9F043F8
:10B39000474B066989B00546186006F1840009F03C
:10B3A000E3FB00220023CDE9062300246FF007030E
:10B3B000CDE90334CDE901443E4B3F4900954FF4BC
:10B3C00000723E4803F07AFDDFF8F4803D493B48C7
:10B3D0003D4F09F011FDD8F810203C4B134043F4C9
:10B3E000820343F04003C8F81030C14688F8184083
:10B3F0004146284607F0CFFA002855D10134092CE0
:10B4000018D009EB4411082C8A7C314B42F04002E1
:10B410008A7408D1D9F810212E4911402E4A0A43C6
:10B42000C9F8102103E00A693A401A430A6108F199
:10B430002008DBE7294C2A4B2269234F134043F4B1
:10B44000041343F0400323618046A14668F07F0265
:10B4500022762146284607F09EFA28BB08F101080B
:10B46000B8F1090F18D009EB4811B8F1080F8A7C20
:10B47000174B42F020028A7408D1D9F810211549DF
:10B480001140154A0A43C9F8102103E00A693A40FD
:10B490001A430A612034D9E796F8803023F072030A
:10B4A00043F0720386F8803009B0BDE8F08300BF36
:10B4B000940D00208DB50200401F0020E8090020F7
:10B4C000B80E0020986803000000F9FF0000BEFFDE
:10B4D000400006000000F7FFFF010800980D002063
:10B4E0000000DEFF10B50C462046114607F06FFA4B
:10B4F000207E07F0CCFD0146034807F0D7FD012070
:10B50000FFF70CFF002010BDDC0F002008B5064A35
:10B510000B7EC2F80C3543F48073C2F80C35087EFC
:10B52000FFF7CAFD002008BD0070024010B50C7E78
:10B530004FF0FF324FF0FF33114803F0CFF92046B0
:10B54000FFF7FAFC04F00F02012393400D4A14F0B8
:10B55000800F14BFD2F81015D2F814156FEA030348
:10B5600015BF0B400B40C2F81035C2F81435044823
:10B5700003F080F9044B8022C3F80421002010BDA1
:10B580009C0600200070024000E100E02DE9F04F31
:10B59000B04D85B004464FF0FF384FF0FF39002220
:10B5A000CDE900894FF0FF31AB4809F02DFEAA48E4
:10B5B0004FF0FF3109F024FE074638072ED5A74883
:10B5C00042464B4603F08AF9EFF31182202383F3BE
:10B5D0001288BFF36F8FA24B1B787BB1D5F8003474
:10B5E00013F400730AD10121C5F82C15D5F82C15D8
:10B5F000D5F80014890548BFC5F82C3582F31188A9
:10B60000BFF36F8F954803F035F90121204607F00D
:10B6100090F900220321204607F0E4F9FE0608D540
:10B620000021204607F085F900220221204607F07C
:10B63000D9F9B80608D50021204607F07AF900228A
:10B640000221204607F0CEF9B90761D4FA0710D5D8
:10B65000BFF35B8F834B002253E8008F43E8002148
:10B660000029F9D1BFF35B8F0126B8F1000F40F03C
:10B67000B180790734D57C4B4FF0000C83F800C0C3
:10B68000D5F88004C0B28DF80800D5F88414C9B28A
:10B690008DF80910D5F88834D5F88C2443EA0223B4
:10B6A0009BB2ADF80A30D5F89024D5F8946442EAFC
:10B6B0000622ADF80C20D5F89824D5F89C6442EA0F
:10B6C000062292B2694EADF80E20002840F09B8011
:10B6D000052940F0988001213170002A00F09F80F8
:10B6E0007B067FF558AF206984304FF0FF324FF072
:10B6F000FF3302F0CBFF5E4E3168002940F0C2807C
:10B700005C4803F0F5FA2069843003F031F842E731
:10B71000594BBFF35B8F002253E8008F43E80021B1
:10B720000029F9D1BFF35B8F4FF0010AB8F1000F88
:10B730008CD098FAA8F3B3FA83F30F2B1E46C6BF3A
:10B74000A3F11006F6B246F080060AFA03F328EADF
:10B75000030833063146204627D507F00AF9834609
:10B7600007F02FF98146D8B10021584607F00EF9AD
:10B7700000224946204607F041F9802E10D13A4B6D
:10B78000002183F800A02046C5F850A007F0F1F88A
:10B7900007F017F9014618B10022204607F02EF9EC
:10B7A00031462046FFF7F8FCC0E707F0E2F8834691
:10B7B00007F007F9814640B10021584607F0E6F846
:10B7C00000224946204607F019F931462046FFF786
:10B7D00019FDABE798FAA8F3B3FA83F30F2B1946D8
:10B7E000C6BFA3F11001C9B241F0800106FA03F30C
:10B7F0000A0628EA0308204602D5FFF7CDFC34E705
:10B80000FFF700FD31E71D4A86F800C0D5F8703417
:10B8100012789A420AD11A4B00221A7014E003F0EF
:10B820007F03ADF80A30ADF80C20F4E7144A012389
:10B83000137033704FF4A063ADF80830D5F870344E
:10B84000ADF80A30CDF80CC002A9204607F0FDF88B
:10B8500046E700BF00700240AC0600209C060020B6
:10B8600006120020DC0F00200B1200200A1200201C
:10B87000840D0020B8060020D80F002008120020F8
:10B880000912002091FAA1F7B7FA87F70F2F39466E
:10B89000C6BFA7F11001C9B241F08001204607F0F0
:10B8A00068F8804690F818904FF0FF324FF0FF3361
:10B8B000134803F013F84846FFF73EFB104802F028
:10B8C000D9FF104B8022C3F804214146204607F0DF
:10B8D000ADF80021404607F059F8BFF35B8F012314
:10B8E000BB40094ADB4352E8000F184042E8000120
:10B8F0000029F8D1BFF35B8F326813403360FBE659
:10B900009C06002000E100E0D80F00204FF080539B
:10B91000D3F83031082B02BF024B0022C3F81C2C95
:10B92000704700BF007002402DE9F04105464FF01E
:10B93000FF324FF0FF33384802F0D0FF374B802200
:10B94000C3F884212720FDF787FFA0B1344F354B82
:10B950003C681B686FF30F041C434FF001088CBB5D
:10B96000314E40F2FF133B602720C6F80445FDF737
:10B970005FFFC6F800432D4A13788BB12A4B002194
:10B98000C3F808110121C3F80026C3F80416596052
:10B99000D3F808110029FBD00021C3F80811117059
:10B9A000214B0024C3F80045FFF7B0FF1A4802F00E
:10B9B00061FF2146284607F043F9C0B16FF004004B
:10B9C000BDE8F08194FAA4F6B6FA86F60F2E334657
:10B9D000C6BFA6F11003D8B243F08000030701D41C
:10B9E000FFF7AAFA08FA06F624EA0604B7E7802168
:10B9F000284607F025F90028E0D10D4B0D491C68B9
:10BA0000204605F0FAFB10F1780F02D1204605F030
:10BA1000D0FB00EAE070D3E79C06002000E100E0E4
:10BA2000900D00208C0D00200070024003120020B9
:10BA3000400D0020300D00202DE9F04FB34BDFF812
:10BA4000D082D3F85421B34F85B00AB30022C3F893
:10BA50005421D3F8042391021AD5D3F8C034002B13
:10BA600014BF4FF001224FF48072AB4B9B683BB97F
:10BA700098F8000007F00BFB0123834022EA030241
:10BA80003B681343A54A3B60136823F0012313600E
:10BA90009E4BD3F8604134B10022C3F86021D3F843
:10BAA0006C44C3F86C44D3F828214AB10022C3F88F
:10BAB00028219B4B187807F0EAFA012383401C43A6
:10BAC00098F8005098F900902A0700F10181B9F127
:10BAD000000FB4BF934B944B05F00F029200134438
:10BAE0001A684AB300221A602846FFF709FA8F4BFA
:10BAF0001A7800F0010050401870FFF707FF8C4BD8
:10BB000028461A6807F0C3FAC240D307064600F178
:10BB1000F680B9F1000F80F2E280882D00F0DF801E
:10BB20007E4A01231168B3400B431360812388F8D8
:10BB30000030794802F09EFE8CB13B68774ADFF80E
:10BB4000F4A124F001210B433B60136823EA0103B5
:10BB50001360A4B24FF00109002C40F0F7806B4B4A
:10BB6000D3F800214AB10022C3F80021724B1A70A9
:10BB7000704B0421186806F035FF644BD3F8582148
:10BB80002AB30022C3F85821D3F80044C3F8004474
:10BB9000E00505D5684B012208201A70FFF7BEFBAF
:10BBA000A10505D5644B002210201A70FFF7B6FBE3
:10BBB00062050CD5604B1A784AB100221A70534BBB
:10BBC0000122C3F8082520209A65FFF7A7FB4F4BF9
:10BBD000DFF85CA1D3F85C31F3B14F4B9B681BB924
:10BBE00098F800305B0617D0484B0022C3F85C2160
:10BBF000DAF80030494A23F00113CAF800303B68F4
:10BC000023F4803343F001033B601368042023F0E6
:10BC100001131360FFF782FBDAF800603B681E40F7
:10BC200000F02E81394BD3F82C95B9F1000F40F07C
:10BC3000278139480022002302F050FE002840F0FE
:10BC40001F8116F0012314BF93FAA3F696FAA6F605
:10BC5000B6FA86F6F4B20F2EC8BF103C354BCCBFF7
:10BC6000E4B244F080041868214606F082FE019098
:10BC700006F0ABFE4FFA84FB04F00803BBF1000FA3
:10BC80000246029380F29C80019A058A518BC36818
:10BC9000C1F30A018D4240F28A800D464FF000093F
:10BCA00003F06042B2F1005F05D0194623482A46EE
:10BCB00009F0C0FA214BB9F1000F00F0B280DAF8B8
:10BCC00000200121B14022EA0102CAF80020A8E0C8
:10BCD0001B4B1C4A33EA290328BF134600E71A48C6
:10BCE000314607F0E3F90220FFF718FBB9F1000F26
:10BCF000FFF616AF013D062D7FF612AF16E7002DB9
:10BD0000F4D1024B0122DA6410E700BF0070024058
:10BD100004120020900D00209C060020880D0020B9
:10BD20000512002008710240307102400312002009
:10BD30008C0D0020940D002006120020440D0020E0
:10BD4000507102402C710240D80F002094FAA4F5E3
:10BD5000B5FA85F509FA05F345F080052946DAF8C4
:10BD6000000024EA030406F004FE06F02EFE064658
:10BD70002846FFF7C5F8014606F10C0005F093FBD5
:10BD8000338A002B7FF4E8AE304606F022FE18B16D
:10BD9000304606F022FEDFE6284607F078F9014635
:10BDA000434807F083F90220FFF7B8FAD4E601937D
:10BDB00006F00FFE80F00109019B5FFA89F96FE739
:10BDC00004F008013B4B00295DD0D3F8C03413F4D4
:10BDD000803F08BF9946118AD068558A029243185D
:10BDE0006D1A51690393401A2D1A4D4528BF4D46CF
:10BDF000294602F10C0005F02EFB019B598BC1F383
:10BE00000A014945DDE902237FF459AF5169D06841
:10BE1000B2F812C0128A401AACEB000191423FF412
:10BE20004EAF4FF080520120D2F83021082A02BFD5
:10BE3000204A8221C2F81C1C3A6888F8004000FAA7
:10BE400006F622EA060204F008013A60194AF9B936
:10BE5000BBF1000F04F00F044FF0140101FB0421AB
:10BE6000A9BF0A3402EB8402C1F80037C1F80457B5
:10BE7000AFBF42F82400C1F80036C1F80456506044
:10BE800005B0BDE8F08F04F5947153F82190A2E756
:10BE9000BBF1000FB5BFC2F8A036C2F8A037C2F898
:10BEA000A456C2F8A457B4BF50629064E8E700BF3C
:10BEB000D80F00200070024010B5EFF3118420234A
:10BEC00083F31288BFF36F8F164B1B7803F0FF02CA
:10BED000CBB11549D1F82C3513B30023C1F82C355B
:10BEE0004FF08053D3F83031082B0CD10F4BD3F8DF
:10BEF000000CC02188B949F27530C3F8000CC3F8B2
:10BF0000141CC3F8000C84F31188BFF36F8F002A50
:10BF10000CBF6FF00A00002010BDC3F8141CF2E73C
:10BF20001A46F0E7061200200070024000E00640CA
:10BF300013B50022009211464023044606F025FE68
:10BF4000024618B16FF0040002B010BD009040230B
:10BF50008021204606F019FE0028F3D15349012321
:10BF60008B60534B4860C860186805F0D7F800280C
:10BF7000EADBEFF31184202383F31288BFF36F8F82
:10BF80004C4B4FF40062C3F8002407F072F808B17C
:10BF9000FFF71EF84FF08053D3F83031082B18D13B
:10BFA000EFF31180202383F31288BFF36F8F424B8E
:10BFB000D3F8001CC022002971D149F27531C3F8B1
:10BFC000001CC3F8142CC3F8001C80F31188BFF3C5
:10BFD0006F8F384B0122C3F80025D3F800241205D7
:10BFE000FBD54FF40062C3F800244FF08053D3F820
:10BFF0003031082B17D1EFF31180202383F31288FF
:10C00000BFF36F8F2C4BD3F8001C00294AD149F2A3
:10C010007532C3F8002CC3F8141CC3F8002C80F34D
:10C020001188BFF36F8F07F024F830B1FEF7EEFFF1
:10C0300007F01FF808B1FEF7CBFF4FF08053D3F89D
:10C040003031082B1B4B0AD140F2E372C3F80028B1
:10C050004022C3F80428BFF36F8FBFF34F8F8022B5
:10C06000C3F81C250122C3F83025144B40F2FF12FF
:10C070001A60134B00211960124B1960124B197092
:10C08000FFF744FC114B197006F0F3FF08B1FEF7FF
:10C09000BDFF84F31188BFF36F8F002054E7C3F80E
:10C0A000142C92E70022C3F8142CB8E7300D0020BE
:10C0B000400D00200070024000E00640900D00207E
:10C0C0008C0D0020880D0020031200200512002096
:10C0D000084B70B5C31A0D4607499B1004465943D7
:10C0E0000648402207F027F82B4601462046BDE8C7
:10C0F00070401847F40F0020B76DDBB67856030088
:10C1000073B50C4C0C4A4023041B00930D460B46A0
:10C110000A49A41061430646094807F037F801466A
:10C1200028B130462B4602B0BDE87040184702B037
:10C1300070BD00BFF40F0020FB310300B76DDBB60C
:10C14000785603000022F8B5012105461046FDF798
:10C1500091FB104801F004FA0446B8B901F020FA46
:10C160002F690D49384604F0C6FF031E09DB01267E
:10C170003E642D69084905F11C0004F0BCFF031E54
:10C1800002DA1C462046F8BDEE64FBE76FF00404BB
:10C19000F8E700BFC5C20200845E03001FB500229D
:10C1A0000123CDE902236C46074A6B46CDE90044E2
:10C1B00007F01CF828B94FF480420023684602F0CB
:10C1C0008DFB04B010BD00BF0D32030010B5EFF3BE
:10C1D0001184202383F31288BFF36F8F074A1368FB
:10C1E00023F00201DB07116002D4012007F0C2FF37
:10C1F00084F31188BFF36F8F10BD00BF441000207F
:10C2000030B4104B0C2202FB003301460020D3E96E
:10C210000E529863EFF31180202484F31288BFF349
:10C220006F8F1C6C04F0C00444F002041C6480F3A3
:10C230001188BFF36F8F1DB12B46034830BC1847E0
:10C2400030BC7047F40F00207856030010B4EFF3B1
:10C250001180202282F31288BFF36F8F17490B6879
:10C2600043F0020413F001030C601AD04FF0804336
:10C27000D3F80C14D3F80C3413F0010311D0EFF3FE
:10C28000118182F31288BFF36F8F0D4A136C03F094
:10C29000C00343F00203136481F31188BFF36F8F6F
:10C2A000012380F31188BFF36F8F1BB110BC0020F6
:10C2B000FFF7A6BF10BC012007F054BF44100020B8
:10C2C000F40F002010B1012804D07047034B1B6C01
:10C2D0005B0701D1FFF794BF704700BFF40F002048
:10C2E000024AC3B21C2000FB03207047F40F002059
:10C2F000F8B52A49BFF35B8F0546012251E8003F9C
:10C3000041E800200028F9D1BFF35B8F33B92449FD
:10C3100024484B60CB608A6004F000FF6B1E012B49
:10C320003BD8012D07D14FF08043D3F81C3403F0E4
:10C330000303012B31D008F059FDA0B91A4B1E7828
:10C340004FF080440223C4F808330127D4F818249E
:10C35000D4F81834D20308D4002EF7D000212120BD
:10C3600008F00FFEF2E70026EAE703F00303012BD3
:10C370000ED0D4F818354BB9D4F8042132B1C4F832
:10C380000431D4F80431C4F81875A760012DE3D145
:10C390004FF080430222C3F80423F8BDF00F0020C1
:10C3A000E00F0020101000205012002008B50748B0
:10C3B00008F0DDFA38B10648FDF7DAFC0448FCF76E
:10C3C000FDFD002008BD6FF01200FBE7CC56030016
:10C3D000D5C302000A2838B5074D044604D1AB681E
:10C3E0000D215B6828469847AB6803485B68E1B25B
:10C3F0009847204638BD00BFCC5603002DE9F043D6
:10C40000476840F20636D0063B7C87B002EA060653
:10C4100054BFC2F3401C4FF0030C01F01F05B6F5EA
:10C42000837F144645EA43158DF803C044D00DD8E8
:10C43000062E16D005D8A6B1022E3FD06FF01500FB
:10C4400037E0B6F5807FF9D101260AE040F20222FA
:10C45000964235D0B6F5407F34D0B6F5007FEDD1A9
:10C460000226220330D57A6801238B40C2F80835B2
:10C47000B868A0BB05F01F036D092DD0012D77D141
:10C480003E4A02EB8302C4F30043D2F8001783F064
:10C490000103C4F3404444EA430421F4E16144EA63
:10C4A0008C0421F0070144EA06230B43C2F800374D
:10C4B000002007B0BDE8F0830726D2E70426D0E7C6
:10C4C0000526CEE70326CCE7630341BF01237A6844
:10C4D0008B40C2F80C35CBE74FF0A042D1E70DF10D
:10C4E0000202294608F0B6F814F4403F80460CD109
:10C4F000B868294608F0E3F8B8F1000FD8D19DF8E4
:10C500000210B86801F0E4F9D2E74FF0000901AB7E
:10C51000CDE90199CDE90439CDF80C90B86803AAAA
:10C52000294607F06CFF4845C2DB14F4003314D0F1
:10C53000C4F300449DF803308DF80E3084F00104FC
:10C540008DF80C608DF80D40B8684B4603AA29465B
:10C5500008F008F80028CFDAAAE7CDE904330DF196
:10C5600003030393B86803AA294607F048FFF1E7DD
:10C5700003F5E07350F82330FFDE00BF00030050E6
:10C58000420970B5034602D0012A17D070BD0D4E86
:10C59000326951680029F9D003F01F0301250C68A6
:10C5A0009D400029F2D08A682A4002D04B6830466C
:10C5B00098472CB1236821461C46F2E7024EE7E774
:10C5C0002346F8E7B05603009456030038B5456893
:10C5D000A86890B108F06DF8014670B9A86808F035
:10C5E0004CF8044658B902460649A86808F02FF8E6
:10C5F000224605210620FDF73DF9002038BD6FF0E9
:10C600000400FBE781C50200F0B544681646A06847
:10C61000227C01F01F0587B045EA421500286DD045
:10C62000B6F5001F04D1294608F09CF8002056E01A
:10C630006268607CC2F8240501AA0020B6F5800F6C
:10C640000190506037D1B3F1007F14BF052304235C
:10C650008DF804300023CDE904230393E36823FA23
:10C6600001F111F001010DF103073AD1B6F1A07FFC
:10C6700037D105F01F036A0903F5E07326D0012ABC
:10C680003FD1214A52F82330DB072AD4A0683A462A
:10C69000294607F0DFFF16301BD00297A06803AAD7
:10C6A000294607F0ACFE002819DBA06801222946C4
:10C6B00008F007F8BAE7B3F1C06F05D0B3F1007F17
:10C6C00014BF01230223C3E70323C1E74FF0A042B5
:10C6D000D8E7A068394601F001F90028DDDA07B093
:10C6E000F0BDA0683A46294607F0B4FF0028D5D12E
:10C6F0009DF80310A06801F0EBF8CFE76FF085001C
:10C70000EDE751F82330FFDE00030050044A054BEB
:10C710009362054A1A60012100220320FDF7AAB89E
:10C7200048050020B410002000300040054A064BA8
:10C7300093624FF040221A60012100220420FDF78D
:10C7400099B800BF1805002060100020036803F0AE
:10C750001F025B09026004D0012B034818BF0020B0
:10C7600070474FF0A0407047000300502DE9F04F94
:10C7700000EB8109614985B01546834640F2FF1AF6
:10C78000D94503D1002005B0BDE8F08FDBF80020CB
:10C79000C2F3C72818F00808C2F3C320C2F3080484
:10C7A00040F0A680564B120E1E5C544508BF4FF059
:10C7B000FF34222A00F29F80DFE802F012222633A3
:10C7C000292F339D9D9D9D36409D9D9D9D9D9D9DA9
:10C7D0009D9D437E81849D9D9D878B8E9194970026
:10C7E000C5F80C45621C64D003A80394FFF7AEFFA4
:10C7F000039A012707FA02F2C0F80825384636E006
:10C80000C5F81445002715E0C5F80845EAE7C5F85E
:10C8100008450027601C1FD14BE0C5F80C450127D7
:10C82000F8E7C5F81045EDE7C5F80845002EE9D151
:10C8300000270626631C3CD0002018E0C5F80C45F4
:10C84000F4E7C5F86045BBF80220671C02F001025E
:10C850002FD0002AC8D1012703A80394FFF776FF41
:10C86000039A8446012000FA02F2CCF80C25DBF88A
:10C870000020019202F4004CBCF1000F08BF80467A
:10C8800003A818BF01270394FFF760FF039C019AD8
:10C8900000EB8400C2F3412CD0F80047320242EA98
:10C8A0008C0242EA08020C40224342EA4702C0F8E6
:10C8B00000270BF1040B63E7C5F86445C3E7C5F82F
:10C8C0006845C0E7C5F86C45BDE7C5F824450127B4
:10C8D000B0E7C5F8284585E7C5F83045F7E7C5F85E
:10C8E0003445F4E7C5F83845F1E7C5F83C4579E744
:10C8F0006FF0150047E76FF0850044E7F0F8FCFFA4
:10C90000AF69030008B578B10849094A4FF4004EF1
:10C910008C460021E0FB0EC100236046FBF772FB52
:10C92000BDE8084008F02DBB08BD00BF3F420F0026
:10C9300040420F00014B01221A60704700C00040C6
:10C940000C2903690BD15B6A064907484B4393FBEB
:10C95000F0F100FB113311605360002070476FF05D
:10C960008500704790D0030040420F00044B0069DF
:10C970000022C3F80021D3F8003101F07BBF00BFD3
:10C9800000C000407FB50569AB6A63B321F0400188
:10C990000C292BD105F110064FF0FF324FF0FF3379
:10C9A000304601F073FE134B0193A86A0323002461
:10C9B00069460394029304F0B1FB4FF0FF324FF04D
:10C9C000FF33284601F08AFFA86A04F0F2FB0A4B05
:10C9D000D3F808256A6201225A60304601F0C8FE89
:10C9E000204604B070BD6FF00A00FAE76FF08500D2
:10C9F000F7E700BF35C9020000C0004010B5046968
:10CA00000020FFF76DFCA0624FF0FF3200212046AE
:10CA100008F053F904F1100008F0A6F800220121F3
:10CA20000C20FCF727FF0C20FCF7F4FE024B012240
:10CA3000C3F80423002010BD00C0004010B5102929
:10CA4000036914461AD0252923D00D2926D1198827
:10CA5000AF2048434FF6FF7200230021FBF782FA14
:10CA600011462D3820600F484FF6FF72002381FBDE
:10CA70000001FBF777FA6060002010BD5988642040
:10CA800048434FF6FF7200230021FBF76BFA114673
:10CA9000E8E79B88136000235360EDE76FF08500A3
:10CAA000EBE700BF40420F0073B5124C466834F804
:10CAB000213010888DF801300D46190A030A8DF8CF
:10CAC00000108DF802308DF8030006F018FF8DF885
:10CAD0000400B38830680522694606F060FF00282C
